S00A00006170702E733139A9
S21403340000B562B661B607F0D5FB5DF804EB70470E
S214033410DFF8480B007C7047DFF8401B08747047E2
S214033420DFF83C0B0078704710B500F0EBF94969FC
S21403343004463420884700B90024DFF8200B447480
S21403344010BD10B5DFF8144B01F07BF8A06201F055
S21403345015F9E06201F06DF92063BDE8104001F054
S21403346044BB10B5DFF8F44A217C052931D1B0F509
S214033470847F02D1A07D40B902E000F00BFA04D0AD
S21403348020780A2818BF032808D10020A07601F068
S214033490C3FC0120207401F02BFD18E0618C491C4D
S2140334A0618489B2B1F5FA7F11DB012818BF0E28B3
S2140334B00DD100F0A7F900206084096B0FF2180005
S2140334C0884701F0CAFCDFF87C0C00F0F5FA01200F
S2140334D010BD002010BD0000676F20746F20736C52
S2140334E0656570232323230D0A000000F8B5DFF873
S2140334F06C5A29780446287C012918BF0A290646EF
S21403350001D1072801D1012000E0002001F07DFD54
S2140335102978A88C012918BF0E2911D1082E1CBFA3
S214033520072E052E0CD0401C80B247F2305188423D
S21403353007DB697F002001B168770521297400E065
S2140335400020A884DFF8606C687C012812D12878F4
S214033550042812D00120E877014600230022DFF872
S214033560B40B01F0B9FD00211D2001F08DFE0020F3
S214033570FFF75AFF2878042805D1316800F0F3FCDA
S21403358008B900F09EFA2978287F04290AD188B959
S214033590012001F0E1FE4FF4966001F00BFF0120DD
S2140335A0287707E0012805D1002028774FF46160CB
S2140335B001F000FF28780A280AD101F005FF18B1A8
S2140335C001F005FF01202874E87F08B10020E877A2
S2140335D0287C09282ED12878DFF8687C012804D0B7
S2140335E00A2810D1687802280DD0E88C401CE8849D
S2140335F080B2C92809DB0023002200F061F800210D
S2140336000D2001F041FE0020E8842878042804BF3A
S214033610E87F00280ED100220023114600F051F85F
S21403362000F089F900231A4600F04AF800210D201D
S21403363001F02AFE287E01282DD1A86B88B93168AF
S2140336400FF26400096B884702F025F8A86302F0BE
S214033650FCF800BB012001F0D8FC012002F0F9F8C9
S21403366019E002F018F8A96B891C814213D202F004
S214033670ECF820B102F0ABF80021202006E002F0BF
S21403368052F8002001F0C1FC0021062001F0FCFDE9
S21403369000202876A8632046FFF7E3FE012802D021
S2140336A001F05AFF0020F2BD7374617274206164E6
S2140336B06A75737420697221212121210D0A000085
S2140336C00121384601F008BD70B5DFF89048A16ABD
S2140336D0002500200201535C23B15618F66800F05B
S2140336E03DF8A275401C0528F4DBE16A00200C2295
S2140336F04243535C23B15618B66800F02FF8E275C0
S214033700401C0F28F3DB216B002011F830203AB160
S21403371001EBC0035B6843EA0205002201F8302090
S214033720401C0E28F1DB2846FFF7E0FE012814D0E4
S2140337306DB102F098FD50B9DFF86C2A0FF604401D
S2140337401268126B29469047284600F01FFC00209B
S214033750E082BDE8704000F001BD70BD33431D43F9
S214033760002353540122704738B5B0F5847FDFF841
S214033770A449DFF8E8570FD0B0F5027F1ED0B0F5A6
S214033780816F0CD000F086F82ED000F0D0F826D04B
S21403379000F0C9F81AD031BD01F0A7F905E000F032
S2140337A031F800F0E0FB002824D00023002201219A
S2140337B0204601F091FC00211D2014E000F027F9BB
S2140337C000F094F900F01FF9012006E000F01FF95D
S2140337D000F085F900F013F90220687531BD00F09A
S2140337E0F7F900213E20A9E000F005F800F0A3F861
S2140337F00520287431BD4FF4FA7068840021062032
S21403380001F042BDDFF8A0190968704710B5B0F59E
S214033810847FDFF848470FD0B0F5027F1ED0B0F59F
S214033820816F10D000F036F82ED000F080F826D046
S21403383000F079F81AD010BD00F043F900F07BF8D9
S2140338400021162024E0FFF7DDFF00F08CFB0028A4
S2140338501FD000F03DF900211D2019E000F0D7F835
S21403386000F044F900F0CFF8012006E000F0CFF8AE
S21403387000F035F900F0C3F80220607510BD00F0C3
S214033880A7F900213E2003E000F08BFA0021112067
S214033890EAE110BD42F208018842704738B500F0ED
S2140338A09EF90FD0B0F5027F20D0B0F5816F14D00B
S2140338B0FFF7F0FF30D000F03AF828D000F033F8E6
S2140338C01CD031BD00F0AEFC00F04CFB002807BF57
S2140338D00021042000210D201DE000F043FB0028FA
S2140338E020D000F0F5F800211D2014E000F08FF83A
S2140338F000F0FCF800F087F8012006E000F087F8F7
S21403390000F0EDF800F07BF80220687531BD00F09A
S2140339105FF900213E2011E0FFF76DFF00F00BF882
S2140339200520287431BDDFF8A01988427047DFF8F8
S2140339309C19884270470A2001F04FBEBDE8344008
S21403394001F0A2BC38B50146B1F5847FDFF85858BC
S214033950DFF80846DFF8EC0812D0B1F5027F25D071
S214033960B1F5816F18D042F2080291423ED0DFF8DB
S2140339705C29914235D0DFF85029914221D031BDE0
S21403398000F09AF8296800F0EEFA002819BF002123
S2140339900D20002104202DE0296800F0E4FA002819
S2140339A02CD000F095F800211D2023E000F02FF81E
S2140339B0607D022810D100F099F800F024F8012069
S2140339C01BE000F024F8607D012805D100F087F89D
S2140339D000F015F8022010E000F073F8002116201E
S2140339E008E000F0F5F800213E2003E000F05FF861
S2140339F00021112001F048FC0020607531BD002134
S214033A00412001F041BC0021442001F03DBC0020D0
S214033A10CCE338B50146B1F5847FDFF88C47DFF891
S214033A203C55DFF8200812D0B1F5027F23D0B1F55C
S214033A30816F17D042F20802914232D0DFF88C2809
S214033A40914229D0DFF8802891421CD031BD00F086
S214033A5033F800F087FA002807BF0021042000216E
S214033A600D2022E000F07EFA00281FD000F030F888
S214033A7000211D2019E0FFF7CAFF00F037F8FFF713
S214033A80C2FF012006E0FFF7C2FF00F028F8FFF7A9
S214033A90B6FF0220687531BD00F013F8002116202A
S214033AA003E000F004F80021112047E731BD0022AF
S214033AB00023114601F010BB00230022012101F070
S214033AC00BBB002200231146DFF8040801F004BBF9
S214033AD0002300220121DFF83C0601F0FDBA002393
S214033AE000220121DFF8EC0701F0F6BA00230022DA
S214033AF00121DFF8E40701F0EFBA70B500F06FF8C4
S214033B00DFF8406716D0B0F5027F2FD0B0F5816F8F
S214033B1021D0FFF7BFFE45D0B0F1081F53D0FFF703
S214033B2006FF38D0FFF7FFFE2AD0DFF8B01788422B
S214033B3049D070BD01F07FFB0023002201213046EF
S214033B4001F0CAFA00F00EFA002807BF002104208D
S214033B5000210D2025E001F06EFB00F003FA00289B
S214033B6035D0FFF7B5FF00211D201AE001F063FBF7
S214033B70FFF74DFFFFF7BAFFFFF745FF012008E009
S214033B8001F059FBFFF743FFFFF7A9FFFFF737FFE6
S214033B900220687570BD01F04EFB00F019F8002195
S214033BA03E20D5E001F047FB0022002311463046B5
S214033BB001F092FAFFF7BFFEFFF71DFEFFF7BBFE0D
S214033BC00520287470BDBDE8704001F034BB70BD9D
S214033BD0002300220121DFF8080701F07DBAB0F5C3
S214033BE0847FDFF8C445DFF87453704710B5B0F52B
S214033BF0847FDFF8684310D0B0F5027F1AD0B0F5A3
S214033C00816F1CBF42F20801884229D0FFF78FFE5E
S214033C1021D0FFF788FE15D010BD00F003FBFFF799
S214033C20F1FD00F0A0F9002807BF002104200021C1
S214033C300D2019E0FFF7EBFEFFF758FFFFF7E3FE53
S214033C40012006E0FFF7E3FEFFF749FFFFF7D7FE85
S214033C500220607510BDFFF7BBFF00213E2003E086
S214033C60FFF72FFF00211F20BDE8104001F00CBB1B
S214033C7070B50546DFF8306502F0E0FB30B90FF2A9
S214033C80CC603168096BBDE870400847B5F5847FA2
S214033C90B24C3CD0B5F5027F18BFB5F5816F53D053
S214033CA042F2080085421CBF44F2080085424BD00E
S214033CB048F2080085421CBFDFF82806854243D039
S214033CC0DFF82406854218BFB5F1081F3CD0DFF89D
S214033CD0FC0585421CBFDFF81406854234D0DFF8A6
S214033CE01006854228D0DFF80C0685421CBFDFF895
S214033CF00806854227D0DFF8D00585421FBFDFF8C8
S214033D00FC058542DFF8D40585421DD070BDDFF87B
S214033D10F01501200870014600230022DFF8240571
S214033D2001F0DAF9316800F01EF9002807BF002118
S214033D30042000210D2009E0A07F40B931680FF26E
S214033D401C60096B19E115E100210C2000E070BD31
S214033D50BDE8704001F098BAB0F5847F00D0704794
S214033D6010B503F059FA80B97C4CA07C401CA074B3
S214033D70FFF744FDA07C0F28A4BF0020A074DFF843
S214033D808405A17C50F82100606310BDB0F5847FE4
S214033D9000D0704780B501F01AFB70490120087403
S214033DA001BD002200231146DFF8980401F094B900
S214033DB070B5DFF8F453DFF850652968674C40F6B2
S214033DC00802801A00F099804FF40062801A00F00F
S214033DD09F8042F6F972801A38D0C01F4AD008383E
S214033DE048D0103846D043F6E172801A34D0C01F4C
S214033DF044D0083842D0103840D047F6E172801AD3
S214033E0031D0C01F3ED008383CD010383AD0DFF847
S214033E10FC24801A2CD0C01F37D0083835D0103871
S214033E2033D0DFF8EC24801A32D04FF4C012801A55
S214033E3056D0DFF8E024801A76D00E387AD01038C1
S214033E4078D0DFF8D424801A75D070BD0120607650
S214033E50BDE8704001F094B9022060760120BDE809
S214033E60704001F0C6B9012001F067F900200DE0AB
S214033E7003200BE0002001F083F906E0002001F0A8
S214033E80B8F902E0002001F058F90420607670BD0E
S214033E902078042818BF01285ED00E2818BF0628ED
S214033EA05AD000F060F8002856D096F8440050B177
S214033EB02968002086F84400096B0FF2B44088474F
S214033EC040F6B83009E02968012086F84400096BFB
S214033ED00FF2AC40884740F62C6003F0A7FA38E0B0
S214033EE001F0F0F9012804D1BDE87040002001F08C
S214033EF0E6B9012001F0E3F92BE00120F071082375
S214033F000C203070707032460121DFF810041AE07E
S214033F1001203072392308207072B07206F108024D
S214033F200121DFF8FC030EE0A07FA8B9096B0FF2AE
S214033F302C4022E01EE0E178DFF8E803012906D1F1
S214033F40002200231146BDE8704001F0C5B8FFF714
S214033F50B3FDBDE8704009E070BD000030AB002043
S214033F603FB600202168496934200847002106200F
S214033F7001F08AB90020A07770BD884700F085FD60
S214033F80FFF73CFC0120A077607770BD2DE9F04178
S214033F90DFF89443DFF89453834F2E7C80462078D3
S214033FA0012847D101F077FB1E2841D22878012843
S214033FB03ED1E87CB8F5827F18D100281CBFA87DC7
S214033FC0002837D0DFF86803007898BB07202874EA
S214033FD00121422001F058F90020E874A97CC94861
S214033FE050F8210068630FF2A83012E0DFF844238C
S214033FF0E97D904511D1002818BF00291AD0092061
S2140340002874FFF7FBFB0020E874C820E8840FF24F
S21403401094303968096B88470CE0C748804509D156
S214034020287D48B159B1002028750120287603E081
S21403403000202070287D10B90FF2783016E0072E86
S21403404005D14046FFF788FE0FF274300EE0082EC7
S21403405008D139680FF27430096B88474046BDE8CB
S214034060F04193E6092E06D10FF26C303968096BDE
S214034070BDE8F0410847287801280ED0022818D05A
S21403408003280ED0042820D0052816D0062818D0DA
S2140340900A281ED00E2808D01EE04046FFF764FB11
S2140340A01AE04046FFF7B2FB16E04046FFF7F6FB82
S2140340B012E04046FFF7ADFC0EE04046FFF742FC39
S2140340C00AE04046FFF719FD06E04046FFF78EFD7F
S2140340D002E04046FFF7CCFDB8F5847F18BFB8F57D
S2140340E0027F0CD0B8F5816F1CBF42F208018845E9
S2140340F005D0764988451CBF7349884501D1002001
S214034100A87628780A2803D04046BDE8F0414FE653
S214034110BDE8F081010000F010B500F01AF8217830
S21403412094F82000884205D0844A0FF2B82012681B
S214034130126B9047207884F8200010BD7B48407EA1
S21403414070470000200000F010B500F002F8207859
S21403415010BD764C2146022001F05DBA10B5734CB3
S214034160A07E58B101F059FAE16B01F52F71814237
S21403417007D200F069F80020A07610BD01F04DFAD2
S214034180E06310BD80B569480078052805D1FFF7C0
S214034190D2FBBDE80240012008E0BDE8044001214F
S2140341A01A2001F071B80000A4B9002070B505000C
S2140341B0624C634E07D15D48226801780FF23420C3
S2140341C03170126B9047012D2BD122683178126B18
S2140341D00FF238209047307802280ED01AD30428DE
S2140341E010D017D200F01EF8FFF7BCFE002807BF5A
S2140341F00021042000210D2012E0FFF7E9FC002136
S2140342003E200DE0FFF7AEFE58B1FFF761FC00213C
S2140342101D2005E0FFF755FCFFF78DFB01211A2053
S21403422096E570BD002300220121064800F054BF26
S214034230424A3E491268C8760146126B0FF2E410F2
S21403424010470000020000F070B53C4E374C326851
S214034250E57E126B0FF2DC1029469047022D06D03E
S2140342602DD3042D21D014D3052D05D027E0FFF739
S214034270AFFC00213E2020E0607D012804D1FFF73B
S21403428035FC0021442018E0FFF729FC00214120DB
S21403429013E0FFF7C7FF3168FFF765FE002807BF87
S2140342A00021042000210D2007E03168FFF75BFEA4
S2140342B028B1FFF70DFC00211D2000F0E5FFBDE847
S2140342C070400020B4E7000008000001080010005A
S2140342D0020008F0018000F0040000F0080000046B
S2140342E0000800F008000100080002000800200093
S2140342F002004000100040002000400008000002BA
S214034300AFAB002070AB0020F8B50020E1FF020041
S214034310E8FF0300FAFF1F00E8FFBF03100000F0EA
S214034320080000F0088000F0B0B9002030AB002091
S2140343307AB700200400000404001000A4B900208B
S214034340ACB900206B3D25780D0A000062617474D9
S2140343506572795F636865636B0D0A005553455F45
S214034360554152545F5749464921210D0A00000022
S2140343706E6F726D616C20232323230D0A000000E9
S214034380666173742023232323230D0A0000000091
S214034390656E7465722073656C6620746573740D40
S2140343A00A000000656E7465722066756C6C676F34
S2140343B00D0A0000735F61646A7573740D0A00006A
S2140343C0735F746573740D0A00000000735F657293
S2140343D0726F720D0A000000735F66756C6C676F10
S2140343E00D0A00006E65775F73746174653A256421
S2140343F0200D0A00736176655F73746174655F6789
S2140344007269643D25640D0A000000007265636FDF
S2140344107665725F73746174655F677269643D2560
S214034420640D0A0073746174655F736176653A257B
S214034430640D0A007265636F7665725F73746174E8
S214034440653D25640D0A0000F8B500240FF2341507
S214034450494E4A4F3268126A07EB0410012140683E
S214034460904710F1010F03D13168096B284688473E
S214034470641C052CEEDB0020F2BD10B5FFF7E4FF4D
S21403448000203F493D4A00230401A35401EB4004A6
S21403449023814354401C0528F6DB10BD2DE9F84361
S2140344A00024DFF8DC80DFF8D090344F2501EE19C6
S2140344B0F068002840D0D9F800107068496988472A
S2140344C0327AC0B2904208EB44011AD10889401CE4
S2140344D00881002280B2031F04F80820C42B38BFCB
S2140344E0012004D3A0F1C802C82A02D20220E8554C
S2140344F022E0B0F5C87F1FDB0420E8554FF4C870F0
S21403450019E014F80800401C04F80800C0B2042898
S21403451012DB0889031FC42B38BF082009D3A0F178
S214034520C802C82A38BF102003D3B0F5C87F01DB02
S2140345302020E85500200881641C052CB6DBBDE866
S214034540F1830E48704770B500240B4D0B4829685D
S214034550496900EB041670688847317AC0B288420E
S21403456003D1F06808B1012070BD641CE4B2052CC9
S214034570ECDB002070BD0000A4B90020E0AA0020F8
S21403458010B900206B657920696F206E6F74206FF9
S2140345906B0D0A0010B500203A493B4A00230C2451
S2140345A004FB0024237021F8103001EB4004401C68
S2140345B00F282384F3DBBDE8104002F059BF80B513
S2140345C002F08DFFBDE801402DE9F84F02F0ABFF86
S2140345D081460025DFF8ACA0DFF8B0B00FF2B008D4
S2140345E0294C0C2000FB05F738190AEB45064068F2
S2140345F0814522D1DBF80020126B4946404690479E
S2140346003AF81500401C2AF81500002180B2A0F1E4
S2140346100B02BD2A318438BF012004D3A0F1C801A0
S214034620C82902D20220385523E0B0F5C87F20DB24
S214034630042038554FF4C87019E0308C401C308481
S21403464080B20F2815DB3AF81500A0F10B02BD2A3D
S21403465038BF082009D3A0F1C801C82938BF1020E5
S21403466003D3B0F5C87F01DB2020385500202AF895
S21403467015006D1C0F2DB4DBBDE8F18F02487047A3
S2140346800000000040B60020E8A80020A4B90020DF
S21403469072655F69723A25780D0A000010B500202E
S2140346A02549264A835C202B05DB01EBC00408233F
S2140346B02376002301E00BB15B1C8354401C0428C3
S2140346C0F0DB10BDF8B5002400F00AFA05461B4ED1
S2140346D0194F07EBC4004088854221D1032C18BF2D
S2140346E0042C03D0052C18BF062C15D1A01910F8DE
S2140346F0030C411E8941C90F07F8341000203060AF
S214034700A119012001F8030CFEF782FE05280AD141
S2140347100120FEF781FE06E000203060082000E05E
S214034720002007F83400641C0E2CD2DBBDE8F140F1
S214034730B4E701487047000014AA0020A0B900207F
S21403474080B5007830B903F0B6F8012804BF02201C
S21403475003F0AEF8DFF89C130020087001BD38B5EF
S214034760044600F0E3FC2178C1F3801242EA4101DB
S21403477001700122617B4170A17B8170012100EBF6
S214034780C2030D5D5D70521C0D19891C6D789D70FA
S214034790072AC9B2F3DBBDE8314000F0B8BC38B530
S2140347A00446D54D05F10801012000F034FF002032
S2140347B0A5F803006871A871E078401CE070C0B2E9
S2140347C0072808BF0020E871207828706078687092
S2140347D0A078A870284600F0ABFCBDE8314000F096
S2140347E09BBC0278C549102A0AD0212A13D0222A54
S2140347F024D0262A40D0302A47D0312A47D07047C3
S214034800427812B941F204020A804078012840D166
S21403481041F2030037E042780AB904220A8042785C
S214034820012A04BF09220A804278022A04BF112201
S2140348300A80407803282CD1122024E042780AB953
S21403484060220A804278012A04BF83220A804278C3
S214034850022A04BF01220A804278032A04BF2022C8
S2140348600A804278042A04BF40220A80407805283A
S2140348700FD141F2110006E042780AB902220A80FB
S2140348804078012805D108807047401C67E7401C24
S21403489085E7704730B587B000A81C2103F01CF8E5
S2140348A0FFF74CFC0546964C2146022000F0B3FE6B
S2140348B0FEF7AEFD05281CBF01208DF8000020780A
S2140348C003281CBF0E28062800A901D18D7001E01D
S2140348D0042088702078022808BF00200BD0032805
S2140348E008BF022007D0052808BF012003D00428EC
S2140348F00CBF03200420C87004F11001002000F050
S2140349008AFE207C00F00101890141EA50008DF8FF
S2140349100A000121002004EBC10200ABC318557C3A
S214034920DD72801C927C1A73491C0729C0B2F2DB25
S214034930607C8DF81700A07C8DF81800A0798DF8A0
S214034940190002F0B2FF8DF81A0000F09BFC8DF8F8
S2140349501B001C2200A9062002F06FFE07B030BD24
S2140349600078012818BF022804D166480021017088
S214034970012141707047F0B597B000A8582102F0A6
S214034980ABFF01208DF8000000AB402058700020DC
S21403499058805C495C4890F85220140002D08D7809
S2140349A0012D01D0062A31DB00250B2AA8BF0A22D7
S2140349B01A7100238D701C461AE08D886E1C8E803B
S2140349C000AD5D19B6B2370A6F71AE7108330026B3
S2140349D0EE71DBB204EB8406641C375A2F7236186A
S2140349E000276F727788AF723679EE7200262E73C1
S2140349F09442E2DB002280F8522001204A700870BD
S214034A005A1DD2B200A9032002F017FE17B0F0BD5C
S214034A102DE9F041032A02D13A4E0125B5703A4DED
S214034A2005F15006B778102F15DB002707EB870430
S214034A3004EB050E7F1CBEF8058024F805800F2FB7
S214034A40BEF80740AEF802409EF809408EF80440D0
S214034A50ECDB102700E07F1CB770B77807EB8707FF
S214034A607F1927F8050CB07800EB8000401920F872
S214034A70031CB07800EB80004019032A00F8012CD1
S214034A8008BFA5F85030BDE8F08180B50FF284006A
S214034A9000F015F802F0D1FD1C4901200870002033
S214034AA01B49087001BD80B50FF26C0002E080B5AB
S214034AB00FF2680000F003F802F0BFFD01BD0088A6
S214034AC0ADF80000022200A90720704780B50FF258
S214034AD0500000788DF80000012200A90920EBE7BA
S214034AE00649088800220A80704706490020888005
S214034AF070470000BEB8002050B90020A8B90020B7
S214034B0064B5002086B90020C0B40020BFB80020DA
S214034B10C0B80020010100000201000002000000EE
S214034B2001000168001D00290DD00268001DD3078F
S214034B3002D5521E19EB020200231360121D091F31
S214034B400029F9D1EDE77047C7484068704710B5AC
S214034B50C649C54C0968496C04F124008847606857
S214034B60401C6060A068401CA06060780628B4BF44
S214034B70401C0620607010BDBB490020886070474B
S214034B80B94880687047B848002141608160417029
S214034B9070472DE9F04F87B0002401A90DF10600F8
S214034BA000F089FD02A90DF10A0000F050FDBDF9E1
S214034BB00A00DFF8BCB2DFF8BC82AF4FAA4DAB4E9B
S214034BC0DFF8B8A202F08CFEAD4902F0A3FE514610
S214034BD002F01EFF09D8BDF9080002F081FEA849BD
S214034BE002F098FE514602F013FF00F2A9803168E6
S214034BF0496C03A8884700F005F90146384602F0D9
S214034C0019FF8146686869699E4F81424FF07E5A54
S214034C1019D068619C49A869EA7802F0F9FE03D8BE
S214034C203C2A03DA521D01E002B1521EEA70E9780B
S214034C300F2905DB32680FF26820126B90470FE0EE
S214034C40C5F81CA002E09DF8000068B9092001F031
S214034C5059F8282806DA0C2001F054F8282801DA37
S214034C60EF6101E0C5F81CA06878C5F81890042821
S214034C70C0F2BF80D5F81CA02F78E968504602F032
S214034C80D9FE00F0BCF800D257B15046414602F0B8
S214034C90D1FE00F0B4F880F0AE80012F40F0AB8078
S214034CA0286900F0BBFCA97841F27072904238BFC5
S214034CB0491C01D301B1491EA970A878042809DB51
S214034CC072483168E8600320A870096B0FF2E4109D
S214034CD0884701E06E48E860BDF90400BDF9067038
S214034CE0E9680090584602F0A5FE02F00FFF8046E2
S214034CF04846594602F09EFE02F008FF3B463768D8
S214034D00D7F830B0014642460FF2BC10D847BDF97B
S214034D1004000128A4BFBDF90600012862DB00F0E9
S214034D20B5FC00285ED1286A10B900F076FC58E07E
S214034D3000F074FCB0F57A6F38BF0124002050E011
S214034D40BDF90A0002F004FF1F2805DABDF90800C2
S214034D5002F0FEFE1F284BDB687804284BDB316825
S214034D60496C03A8884700F04DF80146384602F020
S214034D7061FED5F81CA02F7846498146504602F0BE
S214034D8059FE00F03CF800D247B15046414602F0C7
S214034D9051FE00F034F82ED2012F2CD14846594646
S214034DA002F048FE02F0B2FE3268126B01460FF2C2
S214034DB030109047BDF904000128A4BFBDF90600D2
S214034DC001280FDB00F062FC60B9286A10B900F016
S214034DD024FC06E000F022FCB0F57A6F38BF01240D
S214034DE00020286200F013F800F017FC286102E0A8
S214034DF06C7000F00CF8204607B0BDE8F08F49460B
S214034E0002F0AABE05F1240103A800F02CBC316809
S214034E10496C05F12400084738B5144C2268926C97
S214034E201C210420904701218DF8001004218DF8E1
S214034E30011000218DF802100121174D8DF8031083
S214034E4028600022154900F0D7FB23682868DB6B2F
S214034E5000AA4FF41021984731BD04490E4809684B
S214034E600068C96C0847000048AC0020A4B90020BD
S214034E700000C842E969564300007A440100F04145
S214034E806BEB4E400000C040152799431427994307
S214034E907EC8B742C2CAE8428CAD00204F4B03001F
S214034EA0737461736973206F7665722C25640D0ABB
S214034EB000000000616C7761797320737461736915
S214034EC073212121212100007374617369732025E6
S214034ED064202564202825642C256429210D0A00D6
S214034EE073746173697332202564210D0A00000010
S214034EF010B5254C226882B042F21070ADF800005F
S214034F000021926C0620904720492368086000AA77
S214034F10DB6B1F49984713BD1B4B1C481B68006877
S214034F20DB6B00224FF00311184780B5FFF7A5FA95
S214034F30FFF730FBFEF785FA02F03AFE012002F097
S214034F4031FF00F09DF900F09DF802F054FF01F0E8
S214034F50DFF902F0CBFFFFF75FFF02F00AF903F079
S214034F600BF803F0B7F801220A49012000F05AFBB8
S214034F7002F03BFB01F062FA012804BF0649087001
S214034F80BDE80140B4E70000A4B9002088AD0020C6
S214034F900100030059800300B0B9002080B5FFF775
S214034FA07DFAFFF70CFB02F0E4FBFFF78BFBFEF743
S214034FB02FFAFEF789FB02F098FE00F07EF901F067
S214034FC0F7F900F033FA02F0EEF8FFF7A5F802F06F
S214034FD047FCFFF7A1FF012000F0FFFADFE7000020
S214034FE030B5B0F902400388A5B29D4202D22A46E4
S214034FF01D4613460A46A94288BF2A469A4204809B
S21403500038BF1A46418090B230BD27490870012840
S21403501004BF002000F083BE704738B5224C234DF2
S2140350202078E8B10020A070607838B100F02CFC3E
S21403503000F0BAFC00F05BFE00200FE0E078401CB6
S214035040E070C0B2E0B10020E07000F052FC00F067
S21403505072FD2888401CC0B22880012060700FE0D3
S214035060A07850B90120A07000F077FE00F02CFE67
S21403507000F0F6FB08B100F062FE0020E070288026
S214035080012032BD80B500F068FE09490FF2280002
S2140350900968096B884700F066FB0649BDE80840C7
S2140350A00022012000F0BEBA9CB90020BEB6002044
S2140350B0A4B900201B500300726573746F72655F9A
S2140350C06C745F7369676E616C5F6F666673657435
S2140350D0212121210D0A00007CB500908DF80510D2
S2140350E000208DF8040014461D465A4E8DF80650CF
S2140350F0072200A9304603F081F925B12A46214646
S214035100F01D03F06BF9304600F084FA73BD10B55A
S214035110514C524A392303E010B5514C514A0823E7
S21403512001212046FFF7D8FF204610BD4B487047A5
S214035130014608224B4803F051B938B500F046F84B
S21403514015D12078C0B9287838B9FEF7FDFF0628B0
S21403515003D0FEF7F9FFFFF76BF800F040F842487C
S214035160FFF7BAFF012020700020607005E000F012
S21403517031F800F027F8207031BDA070E07031BD23
S21403518038B500F023F817D1A078D0B9287838B905
S214035190FEF7DAFF062803D0FEF7D6FFFFF748F838
S2140351A000F01DF83148FFF797FF0120A07000209C
S2140351B020706070E07031BD00F00CF800F002F86B
S2140351C0A07031BD01202870002070470128284DAB
S2140351D0284C704700220023114627487CE700200E
S2140351E0287002234FF0FF30ADF8000000AA01211B
S2140351F0704738B5FFF7EAFF17D1E078D0B92878BB
S21403520038B9FEF7A1FF062803D0FEF79DFFFFF788
S2140352100FF8FFF7E4FF1948FFF75EFF0120E07081
S214035220002020706070A07031BDFFF7D3FFFFF73A
S214035230C9FFE07031BD80B5FFF7CCFF0D480021F4
S214035240017041708170C1700A20BDE8024000F011
S214035250C4B90000B0B50020080000F014B4002064
S214035260100000F070B90020000100F0400000F0CC
S2140352704AAB002094B90020020008F0800000F03A
S21403528000F0D5B900F0D7B970B504460F480078DA
S2140352900D4680B10E4E0FF23C003268126B21466B
S2140352A09047E9B2A0B200F0C5F93268126B014626
S2140352B00FF228009047002070BD00207047034976
S2140352C008707047014800787047000086AD0020DC
S2140352D0A4B9002069643A25640D0A007265743A1D
S2140352E025640D0A0000000010B50100344C04D5F7
S2140352F0022003F0A3F9012106E00129B8BF00212B
S214035300022003F09BF9002122681269BDE81040D1
S2140353104320104710B501460129294C07DA002916
S21403532004D5032003F08AF9012104E000210320B9
S21403533003F084F9002122681269BDE81040452075
S214035340104720480121017041704FF4616181804C
S21403535040F2616141807047411E89411948C90F77
S2140353600170704710B5411E8941164CC90F617014
S2140353703420134909684969884708B901206070D1
S21403538010BD10B50F4C207828B9B4F9040002F00C
S2140353901FFD00B200E00020FFF7A6FF607828B9E3
S2140353A0B4F9020002F014FD00B200E00020BDE8EC
S2140353B01040AFE70349888070470249488070472A
S2140353C0A4B9002080AD00207D48007870477C4952
S2140353D000200870704780B5122000F065F9B0F51C
S2140353E0166F01DD012002BD002002BD80B57448A2
S2140353F00079042805D1132000F056F9B0F5FA7F9A
S21403540004E0132000F050F9B0F5617F01DD0120C0
S21403541002BD002002BD80B50C2000F045F9B0F5B2
S214035420FA7F01DD012002BD002002BD70B5644C89
S214035430211D022000F0EFF82079801E042815D2E3
S214035440A06B401CB0F5967F18D301206070002037
S214035450A063002540F6A17600F0FBF8000712D5FE
S214035460606A401CB0420FD301250DE00020A06304
S2140354706070A082E082608320836BE0A063607824
S2140354800028E6D170BD0020606200F0E2F88007D5
S21403549005D5A06A401CB04202D36D1C00E0002074
S2140354A0A06200F0D6F8C00605D5E06A401CB042FC
S2140354B002D36D1C00E00020E06200F0CAF8C007CB
S2140354C005D5206B401CB04202D36D1C00E00020C3
S2140354D02063681E032803D20C202070012003E0FB
S2140354E0606B10B100202070606340F25925FFF70F
S2140354F072FF30B1A08A401C80B2A842A4BF02212A
S2140355002170A082FFF772FF38B1E08A401C80B298
S214035510B0F5487FC4BF07212170E082FFF77BFF09
S21403552038B1208B401C80B2B0F5967FC4BF0F21E4
S2140355302170208301F05AFF08B1608B401C608302
S21403554000F09AFF30B1A08B401C80B2A842A4BFE3
S21403555009212170A08370BD70B5194C25785DB301
S2140355602079801E042810D20820FDF755FF608C92
S21403557040F2E33638B90022002311461148FFF7FC
S214035580ABFD32206084E68301E0608C10B1608C52
S214035590401E6084E08B401CE08380B2B0F57A7FC7
S2140355A00CDB0020E083002105F12000FFF76CFEF2
S2140355B0208C401C208470BD0020608470BD0000D9
S2140355C000B70020020000F000DF01DF03DF05DF85
S2140355D006DF07DF08DF09DF0BDF0FDF10DF11DF72
S2140355E012DF13DF14DF18DF19DF1ADF1BDF1CDF00
S2140355F01DDF21DF22DF23DF24DF27DF28DF29DF8C
S2140356002ADF2EDF2FDF30DF32DF45DF46DF48DFDE
S21403561049DF4ADF51DF52DF53DF56DF57DF5ADFFA
S2140356205BDF5CDF5DDF5EDF5FDF60DF61DF65DF83
S21403563066DF67DF68DF69DF6ADF6BDF6CDF6DDF1E
S2140356406EDF6FDF70DF71DF72DF73DF74DF75DFCE
S21403565076DF77DF78DF79DF7ADF7BDF7CDF7DDF7E
S21403566080DF81DF82DF83DF84DF85DF86DF87DF1E
S21403567088DF89DF8ADF8BDF8CDF8DDF8EDF8FDFCE
S21403568090DF91DF92DF93DF94DF95DF96DF97DF7E
S21403569098DF99DF9ADF9BDF9CDF9DDF9FDFA1DF2B
S2140356A0A5DFA6DFA7DFA8DFAADFABDFACDFADDFB2
S2140356B0AEDFB0DFB1DFB2DFB3DF0000DFF8041721
S2140356C082898A80828ACA80028A0A8102894A81FA
S2140356D082888A810288CA81C389DFF8EC26138010
S2140356E0C38A5380438A93804389D380C3881381B4
S2140356F043885381C38B8B82438DCB82C38C0B83AE
S214035700438C4B83C38D8B83438BCB83018C11825A
S214035710818D5182018D9182818CD182018E11837C
S214035720808B50837047F0B589B055218DF80C10E7
S214035730AA2203A9DFF88C464A700020207004F1E1
S2140357402402B2E8E01004AB0422A3E8E010535CA2
S2140357501818521C142A80B2F9D3020A8A708DF8DC
S2140357600F00052253E030B589B00025052203A9B2
S2140357700220FFF78AFF9DF80C00DFF848465528FD
S21403578002BF03A84178AA291BD104210A5C551934
S214035790491C1429ADB2F9D380789DF80F1001EB9C
S2140357A0002085420DD1102204A904F1240002F042
S2140357B015FE0120A07000F034F80FF25460A047E5
S2140357C003E00020A07000F0BAFA09B030BDF0B5CF
S2140357D089B003AAFF21DFF8EC458DF80C10517051
S2140357E000202070A07004F12401B1E8E01004AB9F
S2140357F00421A3E8E0108B5C1818491C142980B216
S214035800F9D3010A91708DF80F00052203A902202F
S214035810FFF73AFF00F005F80FF2D450A04709B09F
S214035820F0BDB4F92E00B4F92830B4F92620B4F943
S21403583024100290B4F92C000190B4F92A00DFF882
S2140358408C4524680090246B7047DFF878058078D1
S21403585070470100DFF86C0518BF0121017070471F
S214035860DFF8600500787047DFF8582502EB400242
S2140358709180DFF8542522F81010704780B502F0A7
S21403588027FFBDE8024019E7F8B5DFF84445E0799D
S21403589008B300F084F8DFF83C255178D378D67A3D
S2140358A05279A78F17F0070704D0022F08D0042FCA
S2140358B00FD0F1BDDFF82005007860B9012102E0C2
S2140358C000F00AF800212A681269BDE8F8404C2067
S2140358D0104700F001F8F1BD50F82220A28150F8DD
S2140358E02620628250F82320628150F8210020810E
S2140358F07047F8B5DFF8D844E079002845D000F0C3
S2140359004EF8DFF8D074F97BFA7CFB7D7E7B97F844
S21403591015C07F7CB4F83EE01EF0070E06D0BEF13D
S214035920020F0ED0BEF1040F23D0F1BDDFF8AC0496
S214035930007850BB2A68126901214D209047012147
S21403594011E050F82770278350F82C70A78350F87F
S2140359502660A68200F01AF82A68E08200211269FF
S2140359604D20904700212A681269BDE8F8404A2076
S214035970104750F82750258350F82C50A58350F82D
S2140359802650A58200F002F8E082F1BD50F82330DD
S214035990E38350F82220628350F821007047DFF833
S2140359A02C542868806A00472DE9F84FDFF8205406
S2140359B0E879002800F0B580A88FDFF82444DFF8E4
S2140359C0246400F0070168790428A4BF0120A871A5
S2140359D002290FF2844004D0042928D005294CD08C
S2140359E098E029790429A4BF00212971002104EB3A
S2140359F0410300F063F900F096F82E791B051B0DA2
S214035A0022F81630002304F1180632F8137036F81D
S214035A101160BE1904F118075B1C27F81160042BEC
S214035A20F1DB491C0429E2DB2879401C71E0697923
S214035A300429A4BF002169710021002226F8112041
S214035A4000EB4103DFF8A02300F06DF86F791B0528
S214035A501B0D22F81730002336F8117032F813C0E6
S214035A6067445B1C26F81170042BF5DB491C0429DC
S214035A70E3DB6879401C68714CE068790428A4BFAE
S214035A802879042846DBA879002843D00027DFF8C6
S214035A90388304EB470936F917B0B9F918A0ABEB0E
S214035AA00A0002F055F8B9F9102000B206EB4701D8
S214035AB08242B4BF08840A840AEB0B02B2F5806FF5
S214035AC0BEBFB1F9202038F817309A4202DA0A8CA2
S214035AD012010A84DFF8EC32B1F9202003EB470306
S214035AE09B889A4205DAB1F9201038F817209142BC
S214035AF001DA002102E0395D01F00101A9F8100086
S214035B00385D41EA400038557F1C042FC1DB002076
S214035B10687128712046BDE8F44FAC490968C96A24
S214035B200847BDE8F18F5B7805EB430302EBC10240
S214035B30B3F9083070472DE9F84FA54CE0790028F3
S214035B4000F0BA80E08FA14DA54EDFF8988200F0F2
S214035B50070120780428A4BF0120A07102290FF2B0
S214035B60F82004D004292CD0052953D09EE02178B0
S214035B700429A4BF00212170082106EB410300F08D
S214035B809DF85B7804EB4303FFF7D0FF94F800809F
S214035B901B051B0D22F81830002306F1180706F123
S214035BA0180C37F8118032F8137047445B1C2CF836
S214035BB01170042BF1DB491C0E29DEDB2078401C18
S214035BC073E0A1780429A4BF0021A1700821002254
S214035BD028F8112000EB4103834A5B7804EB430368
S214035BE0FFF7A4FF94F802C01B051B0D22F81C3018
S214035BF0002338F811C032F8137067445B1C28F88A
S214035C001170042BF5DB491C0E29E0DBA078401C41
S214035C10A0704BE0A0780428A4BF2078042845DBB6
S214035C20A079002842D00827DFF8989106EB4701B1
S214035C3038F91700B1F91810401A01F089FF0FFA66
S214035C4080FA99F8000009EB470B48B12B680FF26E
S214035C50E0101B6B5246A7F108019847ABF814A057
S214035C60BBF91400504508EB4701B4BFAAEB00008C
S214035C7000200884B1F92000BBF80420904206DA1D
S214035C80B1F92000504931F81710884201DA002094
S214035C9002E0B85D00F00100B95D40EA4100B85586
S214035CA07F1C0E2FC2DB0020A070207030462968B0
S214035CB0C96ABDE8F44F0847BDE8F18F00221A838E
S214035CC000EB4103494A704710B5404C22681269FD
S214035CD000214D2090472268126900214A209047F0
S214035CE022681269BDE8104000214C20104738484E
S214035CF0C17919B1818F491CC9B2818701207047C8
S214035D0000207047374901EB4000B0F92000704788
S214035D10002070473249405C00B10120704710B53F
S214035D200446012C05D129490FF21C100968096B9A
S214035D3088472A48047010BD2749087070472148D1
S214035D40417849B94FF4167200EB4103491C062902
S214035D509A84F9DB01214170704738B51C4C214900
S214035D601F4A0020A071A0872071607120706070A8
S214035D70A070E0700023835402EB40052B8321F8C8
S214035D80103001EB4005401C10282B84F3DB002069
S214035D900021164A02EBC00222F81130124A02EB27
S214035DA0C00222F81130491C0429F2DB401C1028DB
S214035DB0EEDBFFF7C4FF02F08BFCFFF77FFC01204E
S214035DC0E07131BD14AC002088B80020A4B90020CF
S214035DD080B6002000F90300B3B90020B2B9002052
S214035DE03CB70020C0B6002058B30020D8B200202D
S214035DF073617665206C74202825642C25642C2515
S214035E00642C25642C25642C2564290D0A000000C7
S214035E1072656164206C74202825642C25642C2507
S214035E20642C25642C25642C2564290D0A000000A7
S214035E307369676E616C5F6F66667365745B256412
S214035E405D3D25640D0A00002323232323656E206E
S214035E503D3D3D20310D0A00000201010201030011
S214035E6004FF05FF06FF07FF0808090A0A060B0BCF
S214035E700C090D070EFF0FFF44F270614843000143
S214035E800014704780B502F08BFC4FF06632DFF8E3
S214035E90F03302F09BFCDFF8EC33002202F096FCB2
S214035EA002460B464FF06630DFF8DC1302F060FD67
S214035EB0DFF8D823DFF8D83302F01AFEDFF8D4333E
S214035EC0002202F083FC02F037FF00B202BDF8B5F1
S214035ED0FFF7E1FBDFF8C04321680A31814233D282
S214035EE0FFF7D9FB20600E20FFF7DEFB044602F027
S214035EF049FF806D8047DFF8A4532A68126B01467A
S214035F000FF2AC30904702F000F8074601F0FAFFB4
S214035F10064624B240F6E4406043C21240F2B6316D
S214035F2000EB1250A1EB203001F0DAFCDFF870131F
S214035F3001F0F0FC01F0EAFD2C68246B02463B46B8
S214035F4031460FF28030A047F1BD80B5D548002119
S214035F504161C161816101704181C180018181819B
S214035F6040F62C60FFF79EFBBDE802401820FFF7C3
S214035F7098BBCC484089704780B50E20FFF794FB4A
S214035F80BDE8024000B27DE710B5FFF7F5FFC64C4B
S214035F906168C928B8BF491C01DB01B1491E6160AD
S214035FA00846C249884201D3012010BDFFF7E4FF2B
S214035FB02188002848BF491C01D401B1491E21800D
S214035FC041F271712088884202DB4FF0FF3010BD2A
S214035FD0002010BDB448002141600180704710B511
S214035FE0FFF75DFB0120FFF759FBAE4CFFF753FBB2
S214035FF000F019F900F00CF960610320608110BD10
S21403600070B5A84CA54DE078B8B9206B401CC928DC
S214036010206312DB207980B92868006C80470A2841
S2140360200BD100210120FFF72FF929680FF2A820D2
S214036030096B88470120E0702071208A40B901F07F
S21403604061FF2A682082218A126B0FF2A0209047F4
S2140360504FF4696001F05CFF38B1002060810120D5
S21403606020810020FFF71AFB0DE02089D8B140F607
S2140360701D6001F04DFF48B10020FFF70FFB052020
S21403608060810120A070BDE8704020E740F60E60F6
S21403609001F03EFF20B100202081FFF7A0FF13E0B0
S2140360A06081208110E0B4F91210208A0F398142F2
S2140360B00ADA40F61461884206DB4FF0FF3060824E
S2140360C0FFF78DFF0120A07047F23055A089A84244
S2140360D0BCBF401CA081FFF7FAFE6289A089052A8F
S2140360E040F61F264FF4487124D8DFE802F0032455
S2140360F03568908E0020E080A070FFF7CCFA00F0A1
S21403610092F800F085F86061FFF7C9FA304601F0AF
S214036110FFFE20B901206081FFF7C0FA07E00220E6
S21403612060810120FFF7BAFAFFF7B6FAE062FFF7DD
S214036130B2FAA06270BD4FF49670E081FFF7B0FA32
S214036140304601F0E5FE08B102206081FFF7A3FAAE
S21403615000F05EF8616928E0A842B8BFDC21E1815F
S214036160E089FFF79DFAFFF79EFA18B1FFF70CFFD9
S214036170012805DAFFF708FF002801D4607878B114
S21403618000206070FFF726FFFFF785FA00F040F85F
S214036190E061FFF781FA2062052060810120A0708C
S2140361A0FFF779FA00F034F8A169401AF1282ED3E4
S2140361B0FFF771FA00F030F80120A07070BDA84216
S2140361C0B8BFDC21E181FFF76EFA18B1FFF7DCFEFA
S2140361D0012805DAFFF7D8FE002801D4607838B125
S2140361E0002060700120A070FFF7F4FE0520608198
S2140361F0FFF751FA00F00CF8A169401A3D2806D3C0
S214036200FFF749FA00F008F870BD0120208170BD41
S2140362103C21B0FBF1F070473C21B0FBF1F060622B
S2140362200520608170473C21B0FBF1F0A061FFF7C9
S21403623032BA10B51B4C0020E07020822063207118
S214036240A07860B101F05EFE144A126860820146CF
S214036250126B0FF2AC0090470020A07010BD4FF0F9
S214036260FF30608210BD0020704780B50B49096877
S214036270496949208847401E8041C00F02BD00007F
S21403628066660A400000303F6666EE3F3D0AD7A3C7
S214036290703DDA3F00408F4090B90020A4B900203B
S2140362A085EBD13EACAB002060B90020C1D4010021
S2140362B06368617267696E672073746174653A25F3
S2140362C06400000020763A256420633A2564206D36
S2140362D04120743A25640A00626567696E5F6368E5
S2140362E0617267696E670D0A000000006265666F7B
S2140362F0726520766F6C74203D202564200D0A009D
S214036300616674657220766F6C743A25640D0A00B4
S2140363104F48002101758175817401820122012194
S2140363200FF20500FFF77FB970B5FFF79EFFC6B201
S214036330FFF799FFC5B256EA0500454C1BD000206F
S2140363406075A07C10B9FFF768F9E061207D38B965
S214036350E069FFF763F90B280AD30120207507E0ED
S214036360A07D28B90EB10120A0750DB10220A0753D
S2140363700120A07470BD2075FFF74FF9E061A07C83
S21403638030B1012060750020A074FFF746F9206243
S214036390607D00281CBFA07D002808D0206AFFF778
S2140363A03DF941F28931884224BF0020A07570BDB3
S2140363B010B5274C01F0A6FD208000F032F8616A84
S2140363C0627E237EA081A07DA0732088DBB900EBCC
S2140363D04000C1EBC10108180A21B0FBF1F140F6F9
S2140363E0DC00814206D2521CD2B2152A10DB0022F0
S2140363F0012006E0002A1EBF521ED2B2002A07D191
S2140364000020A07604E05B1E2376DBB203B90146C8
S21403641062766162204602F04FFDBDE8104002F04E
S214036420F0BD80B5FFF71FFF10B9FFF71EFF00B1E1
S2140364300120C0B202BD0648807E704780B505497C
S2140364400968496935208847401E8041C00F02BD50
S214036450A4AC0020A4B9002038B500F01DF8332002
S214036460884700B90224296849692C20884708B957
S21403647044F00104204632BD38B500F00DF819206B
S214036480884700B90124296849691A20884708B94A
S21403649044F00204204632BDDFF8845D296849696A
S2140364A00024704780B501F039FD01F02FFB80B260
S2140364B000210FF224028B5C834203DB491CC9B222
S2140364C01129F8DB00290EBF0120481EC0B200EBDD
S2140364D08000C0B202BD000094755C47362A2019BE
S2140364E0140F0C0A08060504030000002DE9F04308
S2140364F0DFF8305D04466889844283B016D0687836
S21403650030B1002068704FF416720021FFF79EF832
S214036510A87848B10020A870FEF724FF0020FEF7F5
S2140365201BFF002000F073FF0020E8702300A9780B
S214036530EA78DFF8EC7C40F2E93640F2616840F630
S214036540B8396FF0C70000F06782012C00F09A801C
S214036550022C00F09D80032C00F0A080042C00F099
S214036560A380052C00F0A280062C00F0A180072C47
S21403657000F0A080082C00F09F80092C00F09E807D
S2140365800A2C00F09F800B2C00F09E800C2C00F051
S2140365909D800D2C00F09C800E2C00F09B800F2C11
S2140365A000F09A80102C00F09B80112C00F09B804A
S2140365B0122C1CBF132C142C49D0152C00F09980D8
S2140365C0162C00F0C080172C00F0C080182C00F0AA
S2140365D0C080192C00F0C0801A2C00F0C0801B2C41
S2140365E000F0D4801C2C00F0C1801D2C00F0E58048
S2140365F01E2C00F0DB801F2C00F0E780202C00F020
S214036600F580212C00F00381222C00F01081232C2E
S21403661000F01F81242C1CBF252C262C31D0272CC0
S21403662015D0282C2DD0292C00F027812A2C34D0E5
S2140366302B2C26D02D2C00F038812F2C00F0228115
S214036640302C00F02181312C00F02A81322C00F00E
S214036650E581332C00F03181342C00F02C81352C6D
S21403666000F02681362C00F02C81372C00F0668152
S214036670382C00F09081392C00F0A781402C00F0D4
S214036680BB81C9E1FEF7E6FF01282870F9D1C4E112
S214036690FEF7E0FF02282870F3D1F1E0FEF7DAFFF9
S2140366A004282870EDD1EBE0032008E0002006E084
S2140366B0022004E0012002E0042000E00520FFF7AA
S2140366C027FBAAE10B2008E00A2006E00D2004E0E1
S2140366D0082002E0092000E00C20FFF71BFB9CE1EA
S2140366E0FFF7BAFE02E0FFF7B7FE400800F001002E
S2140366F093E101F007FC686169693A680FF6403078
S214036700126B904701F0FEFB0090A0F64160B0F5D7
S214036710987F17D800F042FD297945F2AA5011B1A7
S214036720009981420AD001212971009001F0EAFB09
S2140367300190022200A90020FEF7A6FF00210620F2
S214036740FEF7A2FD6AE1FFF7ADFE66E1FFF78BFDFC
S21403675063E1FFF711FC60E1FFF787FD5DE1FFF7FB
S2140367600BFC686169690FF6E82082E00120687017
S2140367704FF41672C8210020FEF768FF1120FEF7BB
S21403678093FF686169690FF6E02072E00120687084
S2140367904FF416720021C820FEF758FF1020FEF7AC
S2140367A083FF686169690FF6DC2062E00121697086
S2140367B04FF416720146002004E0012169704FF47D
S2140367C016720021FEF742FF26E139B90120FEF7D3
S2140367D0C9FD4046FEF7F1FD0120A8701220FEF722
S2140367E063FF686169690FF6B82042E039B9012092
S2140367F0FEF7B8FD4046FEF7E0FD0120A870122024
S214036800FEF752FF686169690FF6AC2031E031B9D3
S2140368100120FEF7A1FD00F00AF90120A87013205D
S214036820FEF742FF686169690FF6A02021E031B9DF
S2140368300120FEF791FD00F0FAF80120A870002071
S21403684068611320FEF730FF686169690FF69420CC
S2140368500FE039B9012000F0DAFD484600F0E6FD06
S2140368600120A8700C20FEF71FFF686169690FF608
S21403687088203A68126B9047D0E0FEF71BFFCCE007
S2140368800120CAE00220C8E01AB90120E870FEF72A
S21403689073F9FEF775F968616869012845DB41E01D
S2140368A04FF41672C821C82092E0FEF702FFB4E048
S2140368B000F0EDF8B2E0012000E0022001F0B8FBA2
S2140368C0ACE01AB90120E870FEF756F900206861BB
S2140368D0032000F0B0F838436861022000F0ABF8FC
S2140368E047EA40006861012000F0A5F847EA800007
S2140368F06861002000F09FF847EAC0006861FFF770
S214036900ABFD00F00102696941EA021100F089F863
S21403691041EA40106861FEF733F980016969014373
S214036920696110B1FEF779FEE861FEF776FEE96964
S214036930401AB04272D3FEF71FF96FE00020686179
S214036940FEF788FE28700B2000F078F83043686165
S2140369500D2000F073F846EA40006861092000F055
S2140369606DF846EA80006861082000F067F846EA9A
S214036970C00068610A2000F061F846EA001068610A
S2140369802878696900F0010241EA421100F049F8EB
S21403699041EA801041E0002000F0CFFDB82808BF90
S2140369A0042006D0BC2808BF022002D0B42805D194
S2140369B001206861FEF731FEA8612FE0A869FEF7A3
S2140369C02DFEB0F5167F29D926E04FF41672014640
S2140369D0FEF73CFE012000F01AFD484600F026FDB7
S2140369E00120FEF7B9FC00F022F80120FEF7BAFCFE
S2140369F04046FEF7E2FC11E000206861FFF733FC37
S214036A0018B1686940F040006861FFF72EFC28B1B2
S214036A10686940F0010000E0002068616C81BDE811
S214036A20F78369614008696900F0010070474FF415
S214036A306160FEF7BFBC6F69FFF76AB96E69FFF75F
S214036A4069B938B500F079FDDFF8D847DFF8D037F5
S214036A5062691B681B6B054629460FF6AC00984710
S214036A6005F0B000B02808D115F00F0005D00120BE
S214036A706061FEF7D2FDA06131BDA069FEF7CEFDD1
S214036A8040F2E93188428041C00F606131BD2DE993
S214036A90F843DFF89047DFF888870FF66C09002085
S214036AA060610025284600F048FD6269D8F800308A
S214036AB01B6B064631464846984706F0B000B0289A
S214036AC004EB850707D116F00F0004D00126FEF766
S214036AD0A4FD386207E0386AFEF7A0FD40F2F51120
S214036AE08842B641F60F60696D1C46EA4000052DE4
S214036AF06061D7DBBDE8F1832DE9FC4100200190FE
S214036B0000906425DFF81C470FF628076089DFF836
S214036B1010670FF60808122800F0A480132800F068
S214036B20A380142800F0A280152817D01A2820D096
S214036B301B2818BF1C2824D01D2866D01E2848D022
S214036B401F2818BF202824D0212818BF222828D081
S214036B5023282ED0322800F08B808CE0606940F624
S214036B604A21884230DB606940F62D61884276DB35
S214036B702AE06069012827DB6069B0F57A7F6EDD5D
S214036B8022E0606901281FDB6069B0F5FA6F66DDF5
S214036B901AE06069012817DB6069B0F5166F5EDDE1
S214036BA012E0606901280FDB6069B0F5617F56DD8E
S214036BB00AE06069B0F5FA7F08DDA089401CA08171
S214036BC080B2B0F5967F4ADD002049E00020A08120
S214036BD051E000F063F800A901A8FEF76CFD00F091
S214036BE055F800F04BF8BDF90200BDF90010401A45
S214036BF000F0AEFF3268126B01460FF250709047FA
S214036C00BDF90060BDF902001AE000F047F800A9DC
S214036C1001A8FEF750FD00F039F800F02FF8BDF993
S214036C200600BDF90410401A00F092FF3268126B9A
S214036C3001460FF234709047BDF90460BDF90600B3
S214036C40801B00F085FF0746304600F081FF05FBFA
S214036C5007F191FBF0F00628A8BF002000DA012018
S214036C60606108E0002004E0012002E0022000E06A
S214036C700320FFF7E6FE6069BDE8F6813368BDF9D9
S214036C800020BDF904101B6B384618473368BDF95E
S214036C900220BDF906101B6B404618470DF1020192
S214036CA00DF10600FEF7D3BCDFF87815CA790B7A28
S214036CB09A424FF0FF3007D2CA79DFF86C05105CB2
S214036CC0CA79521CCA71704700220A72CA710A82B4
S214036CD07047DFF850150A8AC0B240EA02200882DD
S214036CE04AF6AA22088A904204BF40F6B830C88102
S214036CF0002070472DE9F04184B00020009000A9E1
S214036D000DF10200FEF7A3FCDFF81C5550212846C0
S214036D1000F0E2FDFEF781FCDFF80875DFF80C658E
S214036D20796B401A40F6C51188420CD3306850B1CF
S214036D30312808BF392002D0392801D131203060EC
S214036D40FEF76BFC7863AA202870DFF8E404B0F93A
S214036D50061089B20A0AA9706A70B0F9041089B2DB
S214036D600A0A2971EA70B0F9021089B20A0AA971EF
S214036D706A71B0F9001089B20A0A2972EA71B0F989
S214036D80161089B20A0AA9726A72B0F91A1089B281
S214036D900A0A2973EA72B0F9121089B20A0AA973A9
S214036DA06A73B0F9101089B20A0AEA732974B0F943
S214036DB0140080B2A874010A6974002000F0BDFBB9
S214036DC0E874012000F0B9FB2875022000F0B5FB3B
S214036DD06875032000F0B1FBA8751020FEF764FC6D
S214036DE02876010ABDF90200E97500F0B1FE032119
S214036DF090FBF1F0ADF80200BDF9020000126876D0
S214036E00BDF80200A8761120FEF74EFC2877010A8B
S214036E10BDF90000E97600F09BFE032190FBF1F03C
S214036E20ADF80000BDF9000000126877BDF8000059
S214036E30A8771220FEF738FC85F82000010AE977C8
S214036E400C20FEF731FC010A85F8211085F8220094
S214036E50FFF78FF810B1FFF78FF880B2010A85F8B5
S214036E60231085F8240001F04DF80190A0F6416048
S214036E70B0F5987F1AD8022201A90020FEF705FC78
S214036E80397945F2AA5011B1019981420AD00121FC
S214036E903971019001F036F80290022201A9002010
S214036EA0FEF7F2FB00210620FEF7EEF901F02AF8C2
S214036EB0DFF880134843AE21B0FBF1F0000B0A2144
S214036EC0484385F82600010A372085F8270085F809
S214036ED02510012085F82800032085F82900312095
S214036EE085F82A00002085F82B0085F82C003068EA
S214036EF0392804BFC02085F82C000320FEF708FFBE
S214036F0028B995F82C0040F0100085F82C000220D4
S214036F10FEF7FEFE28B995F82C0040F0080085F829
S214036F202C000120FEF7F4FE28B995F82C0040F05B
S214036F30040085F82C000020FEF7EAFE28B995F831
S214036F402C0040F0020085F82C0040F2E938FDF7EB
S214036F50FAFAB8B1786B10B9FEF75FFB7863FEF701
S214036F605CFB796B401A40450CD3787A401C7872E8
S214036F70C0B2042806DB306820B931203060FEF743
S214036F804CFB7863FDF7DFFA28B195F82C0040F048
S214036F90010085F82C00002085F82D000B20FEF755
S214036FA0B9FE28B195F82D0040F0200085F82D0095
S214036FB00D20FEF7AFFE28B195F82D0040F0100027
S214036FC085F82D000920FEF7A5FE28B195F82D00BB
S214036FD040F0080085F82D000820FEF79BFE28B138
S214036FE095F82D0040F0040085F82D000A20FEF7E2
S214036FF091FE28B195F82D0040F0020085F82D008B
S214037000F87818B90120F870FDF7B6FDFDF7B8FD5E
S21403701078617869012802DBFEF7FFFAF861FEF76C
S214037020FCFAF969401A404528BFFDF7A5FD7869C3
S214037030012805DB95F82D0040F0010085F82D00AA
S214037040002085F82E00FEF705FB3870012895F81A
S2140370502E1008BF41F0800003D0022803D141F070
S214037060400085F82E002CB195F82E0040F018004D
S21403707085F82E00FFF7F0F9C10705D595F82E1011
S21403708041F0020185F82E10800705D595F82E00ED
S21403709040F0010085F82E00002085F82F00664C8E
S2140370A02088B0F5617FA4BF082085F82F006348C9
S2140370B00088B0F5166F05DB95F82F0040F0040046
S2140370C085F82F00FFF7D1F828B195F82F0040F088
S2140370D0020085F82F00FFF7C6F828B195F82F00B1
S2140370E040F0010085F82F00002000214A5D1018AB
S2140370F0491C302980B2F9DB85F830000026782059
S21403710085F83100722085F832006F2085F8330049
S214037110622085F834006F2085F83500742085F8E2
S21403712036000FF27420315C721982F8371019B1E9
S214037130761CF6B20F2EF6DB7019002180F8371096
S214037140218800F13704080A6070A170042000F05B
S214037150F4F9E070052000F0F0F9207106F13C0028
S21403716038720020F87102F060F8002004B0BDE821
S214037170F0811CB500F012F8009845F2AA51884237
S2140371800BD1274A0FF2FC101268126B00AC616831
S2140371909047606880B2FEF757FA13BD022200A933
S2140371A00020FEF772BA10B52048006808B1FFF752
S2140371B09DF91C4CE089B0F5967F02DAE089401C05
S2140371C0E0814AF6AA21208A884224D160790028E1
S2140371D004BF606B002802D1FEF71FFA6063FEF758
S2140371E01CFA616B401A65280DD3607958B90120E3
S2140371F0FDF70BFF00206063607201206071A071D1
S2140372000720FCF709F9E079217A884224BFBDE814
S2140372101040FFF76FBD10BD02484079704700006D
S214037220A4B9002074B7002014B5002064AB002076
S214037230E0B60020100905002AB8002028B8002070
S214037240434D445F4241543D25640D0A000000004F
S214037250434D445F444F434B5F43555252454E5450
S2140372603D25640D0A000000434D445F57484545DD
S2140372704C5F525F464F52574152443D25640D0AB8
S21403728000000000434D445F574845454C5F4C5F44
S214037290464F52574152443D25640D0A00000000F4
S2140372A0434D445F4D41494E5F464F52574152440A
S2140372B03D25640D0A000000434D445F4D41494E91
S2140372C05F5245563D25640D0A000000434D445F5A
S2140372D0534944455F464F52574152443D25640D3A
S2140372E00A000000434D445F534944455F524556E8
S2140372F03D25640D0A000000434D445F5641434359
S214037300554D3D25640D0A006972303A25642C728A
S2140373106573756C743A2564200D0A006C65667493
S2140373205F6D3A25642C72696768745F6D3A2564ED
S214037330000000006C6566745F733A25642C7269FE
S2140373406768745F733A25640D0A0000434D445F13
S214037350574845454C5F525F5245565F5350443A33
S21403736025640D0A00000000434D445F5748454519
S2140373704C5F4C5F5245565F5350443A25640D0AA2
S21403738000000000736574206164632076616C7589
S214037390653A25640D0A00005852353130462056AA
S2140373A045522030313037000000000010B5044647
S2140373B02146042001F042F91E4A12681269210090
S2140373C0BDE8104018BF01213620104710B51A4CEF
S2140373D0207838B9B4F9040000F0FAFC6080B4F9F8
S2140373E0020000E00020BDE81040DFE780B5114949
S2140373F00968496924208847C0B202BD0E480121A6
S21403740001700021418040F6B8318180704710B585
S214037410411E8941084CC90F21703420054909686B
S2140374204969884708B90120207010BD0249888041
S21403743070470000A4B9002080B9002070B500246E
S2140374400FF21C15414E42483268126A00EB840064
S2140374500121006A904710F1010F04D13268126BC4
S214037460214628469047641C052CECDB002070BDA3
S21403747038B5364C0FF2FC002168096B884735484F
S2140374804FF4207100F028FA314D052105F1100064
S21403749000F022FA0521304800F01EFA052105F116
S2140374A0180000F019FA0521284600F015FA052100
S2140374B005F1080000F010FAFFF7C0FF0025284684
S2140374C001F0DAFE6D1C062DF9DB21680FF2B4001D
S2140374D0096BBDE834400847204A8154704710B50D
S2140374E001F0DCFE00201D4C04EB400114F81030C4
S2140374F04A7843EA02220A85401C0A8205288A83C0
S214037500F2DB0A21204600F0E7F904F12800BDE883
S21403751010400A2100F0E0B9104901EB40010022B7
S214037520088A0A8270470D49087B4A7B22B1521E9D
S2140375304A73D2B202B90A737047084901EB400195
S2140375400022888B8A83C0B270470000A4B900204B
S214037550E0AB002090AD002078B90020ACB7002047
S214037560697220696F206E6F74206F6B20693D25EA
S214037570640D0A0069725F72785F696E69740D0A3A
S2140375800000000069725F72785F696E6974206F2D
S2140375906B21210D0A00000038B5DFF82043DFF821
S2140375A02053A08B2A6868B9126A002134209047BA
S2140375B02A68126A0021392090472A6800F011F8D9
S2140375C0002104E00A2806D100F00BF801212A68FE
S2140375D0126939209047A08B0B28BCBF401CA083A0
S2140375E031BD1269012134201047B448002181754A
S2140375F00176D1E770B504460D46002604E0315DFA
S214037600032001F079FE761CAE42F8D3BDE8704045
S21403761001F011BE30B5437800220BB9002030BD0F
S2140376208178C01C5D1E03E0145C6118C9B2521C4D
S214037630D2B2AA42F8DB084630BD70B51446A14D57
S2140376400022002316464CC5AA2205F80C2D6960B5
S214037650621C6A70A8701846697809B900220AE0A5
S214037660AA7804E06E68835D9A18D2B2401CC0B252
S2140376704E1EB042F6DB2A72642105F10C0000F0C0
S2140376802BF90020415D4219401C03281173F9DBD6
S214037690002003E06A68825CCA73401C4119A0425A
S2140376A0F8DB287AC8736878C11C05F10C00FFF76D
S2140376B0A1FF002070BD000344F61F21B0FBF1F0CC
S2140376C080B2704710B580490A7C0346A3F621248E
S2140376D0B4F5077F38BF022305D3A3F63D43B3F5BE
S2140376E0A27F01D201230B74B0F5586FC4BF0020EC
S2140376F00874087C904203D208780A2807D104E06D
S214037700824204D208780A2801D002B10A74487863
S214037710052804BF0220087410BD10B56A4C04F196
S21403772014010420FDF777FF21460220FDF773FFBF
S214037730B4F91E00FFF7BFFF618D00290CBF4000A0
S214037740401880B240F6B8318842A8BF400860852A
S214037750208D401C80B2B0F5FA6F04DA227C032A2F
S21403776005D1322803DB608DFFF7ACFF00202085B0
S21403777010BD38B5FFF710FF504CA08B0A286DDB01
S214037780607E401C6076C0B2DC2812DB022001F06B
S21403779017FE022001F019FE0020A07608E0AA28B2
S2140377A005D10021217520700121A176E176002004
S2140377B06076022001F0E7FD00284DD1022001F09B
S2140377C0C2FDE17EA37E4A1C002BE8D0022B09D023
S2140377D0EFD20221A1766070C11C0020217560766D
S2140377E0E276E6E70855E2760020257D6076D2B29B
S2140377F0AA42DED32046FFF70DFF291911F8011C14
S214037800884225D1A07802281DD0032817D0052842
S21403781011D006280BD0072804D0092818D1FDF765
S21403782055F915E0012020760020E07510E0FDF7FD
S21403783031F800200BE0E01CFCF782FF08E0E01CB8
S214037840FDF78EF804E0E01CFCF7CBFF0120607523
S214037850002020756083ACE7FFF75FFF002032BD92
S21403786010B5FBF7D5FD1948017809B10021017061
S214037870174C2078401C2070C0B2322803DB00204F
S2140378802070FDF778F8FDF7FDFC6178884208D094
S214037890FDF7F8FC012802D1FDF705F901E0FDF735
S2140378A006F9FDF7EFFC607010BD0748007C7047D3
S2140378B0084908707047074800787047A8B8002042
S2140378C0A4B9002050B4002078AC002086B900206C
S2140378D0AAB90020B4B90020002201F089BD000037
S2140378E0002840F10980F446404200F005F850F0C5
S2140378F000406047002800BF0AD0B0FA80F18840F5
S214037900D1F19D01C905020672F1004241EB102038
S2140379107047000010B5FF2313EAD0541DBF13EAC7
S214037920D1529C429A4239E0A41ADA0780EA01034C
S214037930134042EA012142EA0020421A3CBF641E79
S21403794001EB4202090AB2FBF1FE01FB1E22120200
S214037950B2FBF1F001FB10226EF30F201202B2FB12
S214037960F1FE4EEA00207F3406DDFE2C24DA53EACD
S214037970500050EBC45010BDD4F1020401FB1E228C
S21403798040F08071192C1DDC21FA04F0C4F12004A8
S214037990A140114371F10042584110BD9C421ABFE9
S2140379A003EAD1529A420FE080EA010E0EF000433A
S2140379B0400004D0490016D143F0FF4010BD4900F3
S2140379C008BFD343180010BD9C4205D1D21AF7D086
S2140379D001F00041484010BD4A0212BF0846484025
S2140379E000F0004010BD4AB90902B1FA81F2914095
S2140379F044B1A418C00140F000409EE7C90141F01D
S214037A00004152420002B0FA80F4A040141B94E7EF
S214037A104FF0807C1CEB400F94BF1CEB410F05E03E
S214037A2040EA010C5FEA4C0C01D28142704718BF52
S214037A3088427047FF2212EAD05C1DBF12EAD15378
S214037A40944593422BE09C44D30780EA01021A40F4
S214037A5043EA002043EA0121A1FB0030410038BF7E
S214037A6040007CF17F010BDBFE294ADA5B0842EA21
S214037A70C15153EA006373F1004C51EB1020704779
S214037A80D1F1080CDCF120012FDB5B0810FA01F1C1
S214037A900B4373F1004120FA0CF0504170479445B4
S214037AA01CBF02EAD153934280EA010202F000426D
S214037AB01DD0400019D0490017D05BB9634514D0D8
S214037AC00902B1FA81F39940BCEB030CC00140F004
S214037AD00040C1E70002B0FA80FC10FA0CF0B3EBEA
S214037AE00C0CC90141F00041B6E710007047400096
S214037AF00AD0490008D010F1807F94BF11F1807F2F
S214037B0002E042F0FF407047D04370474100090E41
S214037B107F3915D4D1F11F0114D4400007D2C00118
S214037B2040F00040C84048BF6FF000407047C001B7
S214037B3040F00040C8404CBF4FF000404042704702
S214037B400020704700424FF0004058BFC0437047C4
S214037B50002848BF404270474FF0807C1CEB400F24
S214037B6094BF1CEB410F05E040EA010C5FEA4C0CA6
S214037B7001D28842704718BF81427047FBF750BC5A
S214037B80F8B500240FF23425884E894F326857F82B
S214037B902400126A0021904710F1010F03D13168C7
S214037BA0096B28468847641C032CEFDB0020F2BDD4
S214037BB080B58048FDF734FDBDE80140E0E710B529
S214037BC001287A4C09D018D3032806D002D30428F8
S214037BD006D010BD01212E200EE001212F200BE040
S214037BE02268126901212F20904722681269012119
S214037BF02E209047012130201FE010BD10B501282C
S214037C006A4C06D018D3032813D005D3042806D00D
S214037C1010BD00212F200EE000212E200BE022684D
S214037C20126900212F2090472268126900212E2016
S214037C3090470021302000E010BD22681269BDE89D
S214037C40104010470000000010B55B4CA07C58B1F4
S214037C50401EA074C0B238B9E07C401CE074C0B2C9
S214037C600728A4BF00202074E07C062832D8DFE86B
S214037C7000F004110D11151C280000F091F80220E5
S214037C80FFF79DFFA07C28BB122022E000F088F8B7
S214037C90022019E000F084F8012015E000F080F8D7
S214037CA00220FFF78CFF03200EE000F079F8012096
S214037CB0FFF785FF0320FFF782FFA07C50B946201D
S214037CC007E000F06DF80420FFF779FFA07C08B901
S214037CD03220A07410BD80B5FEF70EFFBDE802404B
S214037CE0002814BF0320022069E738B5FBF790FB92
S214037CF00546FBF795FB304C21460220FDF78BFC2F
S214037D002178207C01290DD001280BD10020207476
S214037D106069401C606100F043F8072D07D1BDE899
S214037D203140D8E70128F3D1BDE831408CE7052D73
S214037D3028D0082D03D1BDE8324002203FE7217842
S214037D406069022924D0032908D004290AD005290A
S214037D501ED0062902D00A291CD009E0217919B9B8
S214037D60012006E0217989B1617C61B93D2060611B
S214037D700420FFF724FF60697928A4BF0020606110
S214037D802079607431BD3D28F5DBF1E70220F0E78A
S214037D900320EEE761780229E2D13D28EBDBF5E725
S214037DA004202BE70449087470470000A4B9002098
S214037DB064AD002070AD0020CCB8002064697370F9
S214037DC06C617920696F206E6F74206F6B0D0A00EB
S214037DD06421484340F62C6190FBF1F06528A8BF68
S214037DE064200A214843704780B5FFF7EFFABDE8E1
S214037DF00140FDF7C6BA10B5074C207830B901220A
S214037E0064210648FDF70FFC01202070FFF7F6FA01
S214037E10BDE81040FDF795BAB1B90020E97D03002F
S214037E2010B51220FDF740FC4E4C00F054F8218AA2
S214037E3000F055F82080208820821320FDF734FCBC
S214037E4000F049F8618A00F04AF860806088608232
S214037E501020FDF729FC00F03EF8A18A00F03FF859
S214037E60A080A088A0821120FDF71EFC00F033F846
S214037E70E18A00F034F8E080E088E0820E20FDF727
S214037E8013FC00F028F8218B00F029F820812089C4
S214037E9020830C20FDF708FC00F01DF8618B00F032
S214037EA01EF86081608960830F20FDF7FDFB00F0FC
S214037EB012F8A18B00F013F8A081A089A0830F20ED
S214037EC0FDF7F2FB00F007F8E18B00F008F8E0811D
S214037ED0E089E08310BD0A2190FBF1F0704701EBC7
S214037EE0C1010A2291FBF2F10818704710B51E4C27
S214037EF0207830B9012205211C48FDF794FB0120A8
S214037F00207010BD1748808B70471648C08B70478B
S214037F1014498A8B90428941C80F704738B5114877
S214037F20C08BADF80000BDF80000FFF7E3FC4FF090
S214037F306651FFF77FFD0E49FFF77CFD0C49FFF7FF
S214037F40E9FC04460B482146FFF774FD05464FF04F
S214037F507E50214601F066FA01462846BDE83440C5
S214037F60FFF7D8BC28B80020AFB90020217E030055
S214037F703333534000003C428721102000F05EBBA1
S214037F80F8B51446314A02EB001303EBC40303F1BE
S214037F9028052B685B1CFF2B2B6002D82E79761CDA
S214037FA02E7102EBC0066879294FC0F10F0021FA43
S214037FB000F2D0070ED4FF2B25D8287905280EDB30
S214037FC0401F0C2815D36879102829DB0020687118
S214037FD00120F2BDFF2B16D828790D2806DA3A6859
S214037FE056F824001269012190470CE00D38042846
S214037FF0E9D200F017F82879102804DB6879401CCA
S2140380006871002028712868FF2801D900F00AF853
S2140380102868B0F5E37FD6D90020286028716871F8
S2140380200020F2BD3A6856F8240012690021104772
S2140380300128084902D10870002004E0022803D171
S2140380400020087001204870704700009CA900209B
S214038050A4B900203DB6002080B501224FF20201EC
S2140380600020FFF78DFF01224FF208010420FFF7DF
S21403807087FF01224FF220010120FFF781FF012233
S2140380804FF280010320FFF77BFF01224FF472417A
S2140380900220FFF775FF00224FF201011046FFF79B
S2140380A06FFF00224FF204010420FFF769FF00224E
S2140380B04FF210010120FFF763FF00224FF2400149
S2140380C00320FFF75DFFBDE8084000224FF471412F
S2140380D0022055E780B501F075FAA84AA849126848
S2140380E008600121126928209047BDE80140C2E0DC
S2140380F070B582B0A14CA24DA24E8DF8010000AA25
S21403810000208DF8000031462868236801E000AAA5
S2140381103146DB6B984700F017F8F8D05B6B01220B
S2140381200DF101019847984E2868236800AA314646
S214038130DB6B984700F008F8F8D09B6B012200A988
S21403814098479DF8000076BD236828689DF80010C0
S2140381500029704770B5894E326800F038F800F091
S21403816031F88A4908702846FFF7C2FF3268126959
S214038170BDE8704046E038B5804D2A68126904466B
S21403818000212820904700F01DF880490870002041
S214038190FFF7AEFF2A68126904460121282090479C
S2140381A0204632BDF8B500F00FF800F00BF80024B7
S2140381B004E00020FFF79CFF6055641CE4B2B44261
S2140381C0F7D31BE0204693E76C4F16463A680446FF
S2140381D00D461269002128201047F8B5FFF7F4FF73
S2140381E0FFF7F0FF69490870002404E015F8010B57
S2140381F0FFF77EFF641CE4B2B442F7D33A68126911
S214038200BDE8F84001212820104710B50021E220E0
S214038210FFF7A0FF0720FFF7AEFF01462720FFF773
S21403822099FF00F010F80020FFF7A5FF40F00101CA
S214038230FFE72020FFF78EFF22681269BDE8104093
S2140382400121292010474D4C22681269002129205C
S214038250104710B504460720FFF78DFF4C490870FA
S214038260000601D534B900E024B1BDE8104053211F
S21403827050206FE710BD70B582B0642000F0A1F8FF
S2140382800020FFF7E6FF1425424C00E06D1E04EBCA
S2140382904500417814F8150000F084F8002DF5D158
S2140382A0052204F14C012A20FFF797FF052204F16B
S2140382B054012B20FFF791FF052204F14C013020D7
S2140382C0FFF78BFF1D20FFF756FF18B973215020C9
S2140382D0FFF740FF04F12A06B078F17800F062F861
S2140382E094F82A00717800F05DF80120FFF7B1FFDB
S2140382F000AE002004F13001C20051F8251000F052
S2140383004BF8F7DB281D00F050F86D1C022DF0DB50
S2140383100225002004F13001C0F1030251F82510B4
S214038320D20000F039F8F5DB05F10A0000F03DF85D
S2140383306D1C042DEDDB0B2204F140012E20FFF70C
S2140383404CFF0020216BC20000F026F8FADB9DF8F4
S214038350000040F0060000F02EF89DF8000000F044
S214038360F90000F028F80A2000F02BF80020FFF7A9
S21403837070FFFFF74AFF73BD00000000A4B900209A
S2140383808CB900200900040003000400ADB90020E6
S214038390AEB9002084AA002021FA02F38355401CBC
S2140383A00428704740F02000D4E640F02000042262
S2140383B000A9C0B211E78DF80000042200A924200A
S2140383C00BE7C0B24FF47A71484380B2002100E055
S2140383D0491C89B28142FBD37047000062B38B0706
S2140383E008D0521E11F8013B00F8013B00F0248030
S2140383F08B07F6D1830740F0208000BF103A07D3DF
S21403840030B4B1E83810103AA0E83810F9D230BCCE
S214038410530724BFB1E80810A0E8081044BF51F87A
S214038420043B40F8043BD20724BF31F8022B20F864
S214038430022B44BF0B7803707047083A07D3B1E8A2
S2140384400810083A40F8043B40F804CBF7D2530729
S214038450E4E7000070472DE9F047904C226894B09B
S214038460926C0221022090470521ADF802108C4D34
S21403847023684FF47A7900214FF4807A6860ADF868
S21403848000900191ADF808A0864FDB6B00AA394631
S214038490984706200490022600F090F8DFF808823A
S2140384A0236868688DF80C6000F096F8761C042E36
S2140384B0F6DB00F095F80321ADF802102860ADF85E
S2140384C0009000F099F800F090F8236800F07AF82E
S2140384D08DF80C0003AA286800F07FF82268926CD7
S2140384E00321022090470621ADF80210E8604FF4FE
S2140384F087762368ADF80060002100F07FF800F06F
S21403850074F800F05FF8012023688DF80C0003AAC6
S214038510E86800F062F800F063F80621ADF8021090
S214038520A860ADF8006000F067F806200490002706
S21403853000F044F82368A8688DF80C7000F04CF837
S2140385407F1C042FF6DB02212268926C0B209047D7
S2140385504FF43471ADF84010286100212368ADF85C
S21403856042101291ADF84CA010AADB6B4F49984706
S2140385704F49236807200A9009AA01208DF82C008A
S2140385808DF82D000020ADF82E008DF83000012068
S2140385908DF831000020ADF83200ADF838000F90AA
S2140385A001208DF82400DB6B286998472869414928
S2140385B00022FDF721F814B0BDE8F08701208DF8FE
S2140385C0140000208DF81500ADF81600ADF818005D
S2140385D0ADF81E000890704703AADB6B41461847A8
S2140385E02268926C01210220104706200490012085
S2140385F08DF8140000207047002123680191ADF820
S21403860008A000AADB6B3946184738B5234C244D1F
S21403861021682868C96C884721686868C96C8847D8
S2140386202168A868C96C884721686869C96C884747
S21403863028692168C96CBDE83440084780B5ADF8A1
S21403864000100228164B1C490ED003280FD004280E
S21403865014D007280ED008280ED0092813D00F28C8
S2140386601AD0102812D001BD586814490FE0586874
S21403867013490CE0586802E0586808E0186800AA36
S2140386804FF0011104E018690E4900E0D86800AA0B
S214038690024B1B68DB6B984701BD0000A4B90020A2
S2140386A0E4B80020050001000600010017000100E1
S2140386B01900010055840300090001000D000100A4
S2140386C00B0001001100010070470FF26C007047A9
S2140386D00FF2040070470000FFFFFFFFFFFFFFFFDE
S2140386E03C003C003C003C003C003C003C003C00A2
S2140386F00000C800C800C800C800C800C800900131
S2140387009001C800C800C800C8000000C200CA0024
S214038710C300C100C500C600C400CC00CF008D0056
S214038720C900C700CB00C8000501FF000000F10028
S214038730F400F800FC0000002C0E100E6106B80BC7
S214038740000000000000000000008C4200006643AA
S21403875000C031440080AC43030032002300000015
S21403876001000000000000000000000022012201BA
S21403877022012201B400000000001D0001001800C1
S214038780E8030000000000003C00000000000000BA
S214038790000000000A000000000000003E02000087
S2140387A0010040F10780F446404200F003F851F020
S2140387B00041604709D0B0FA80F18840C91CC1F572
S2140387C08461090501EBD02140057047B0B581EA05
S2140387D0030C0CF0004C40F2FF7515EA11541DBF54
S2140387E015EA1357AC42AF4239E0E41923EA45537E
S2140387F043F48013C90241F0004141EA505EC702C8
S2140388001100A7FB020200284FF00000EEFB012038
S2140388104FF00001E3FB072118BF42F001024018A6
S21403882000214941E3FB0E01A4F580640F0302D245
S21403883052004041494154F101046CDD470872F18E
S214038840004250F1000051EB0451A1F580115CBFCA
S21403885041EA0C01B0BD4CEA05510020B0BD05EA63
S2140388601357AC4214BFAF4241E050EA410E1CBF5F
S21403887052EA430E02E061460020B0BD24423C4467
S2140388801BD15FEA070EF6D0090302BF014600209C
S214038890AEF1140EB1FA81F7AEEB070401FA07FE48
S2140388A00C37C7F1200100FA07F7C8404EEA000E5E
S2140388B023EA455343F48013A2E733F00043B3FAA5
S2140388C083F704BFB2FA82FE77440B3FE41BB7F18B
S2140388D0200E2FBF02FA0EF3BB40C7F1200E22FA7A
S2140388E00EFE38BF43EA0E03BA40641C82E750EA22
S2140388F0410E14BF52EA430E6FF000014FF4001707
S21403890017EB430F8ABF194617EB410FB5E74CEA3F
S21403891005510020B0BDD4F10104B4F120070FDAED
S214038920C4F12007520828BF42F0010210FA07F5E7
S21403893001FA07F7E1BF2A43E0403843E1400FE07E
S214038940352C98DCC7F1200452EA400220FA07F2DD
S21403895018BF42F0010231FA07F0A1400A43002192
S21403896072F1004250F1000051EB0C01B0BD000063
S21403897070B44FF0004591EA030F44BF6B4000F01C
S21403898037BE00BF841A71EB030604D26E40001B89
S214038990B141121973414FF4001C1CEB410F34BF55
S2140389A07CEB430684E00C0DA4EB1356362E7DDCDD
S2140389B0012E43DC45EAC32343EA525312BFD202D5
S2140389C092025B08240545EAC12141EA5051D2EBE5
S2140389D0C020994125D407D1B0FA80F610FA06F1E3
S2140389E064D00020203608E0B1FA81F6B140C6F123
S2140389F0200220FA02F21143B0404FEAF474B4EBBB
S214038A00465434F001064FEA74040AD8D6F5001625
S214038A10760D04F00044F04061FA06F25040F1404F
S214038A204840C00A40EA415021F0004128BF5FEAAF
S214038A30500550F1000044EBD12137E045EAC3234B
S214038A40DB0A45EAC121C90AB6F120050EDD42EA72
S214038A500242120CC5F1200603FA06F6EB4042EA80
S214038A6006056D42984161F100010DE062FA06F5D4
S214038A70F240554063FA06FC82EA0C02F3405A4081
S214038A806D42904161EB030111F4801F05D1641E12
S214038A90620502D06D004041494121F4801143082C
S214038AA075F1004350F1000041EB045170BC704770
S214038AB01CEB410F15D223F0004352EA43060BD0BA
S214038AC04FEA4C0CBCEB410F04D80C0D661E342E3B
S214038AD0B7DDEBE7801A994150EA410608BF00214B
S214038AE0E4E708BF1CEB430F28BF6FF00001DDE788
S214038AF0F0B540F2FF7581EA030C0CF0004C15EA62
S214038B0011541DBF15EA1357AC42AF42E5E0BC4112
S214038B10C1F31301C3F31303801A994143F480137B
S214038B2004D2641E4000494180185941C90241EAF3
S214038B305051B1FBF3F603FB1611A2FB0675D7EBF8
S214038B40C020A94102D2761E80185941C90241EAC3
S214038B505051B1FBF3FE03FB1E11A2FB0E75D7EBC0
S214038B60C020A94103D2AEF1010E801859418902F3
S214038B7041EA9051760546EA8E2EB1FBF3F603FBE7
S214038B801611A2FB0675D7EB8020A94102D2761EEA
S214038B9080185941C90241EA50514EEA060EB1FB0C
S214038BA0F3F603FB1611A2FB0675D7EBC020A9410B
S214038BB002D2761E80185941C90241EA5051B1FBD0
S214038BC0F3F703FB1711A2FB0735D3EBC020A9412C
S214038BD067F100070CBF004247F0010766F3D5278D
S214038BE04FEA1E31B80814F5806412DDBD0775F12F
S214038BF0004250EB0E5051EB045111F5801F5CBF41
S214038C0041EA0C01F0BD4CF07F6141F0E0410020E9
S214038C10F0BDBD076D0840EA0E5041F48011D4F153
S214038C200104B4F120060ADAC4F120060200E0408B
S214038C3001FA06F3E1401843B24015430EE0342C24
S214038C4013DCC6F1200445EA40056D0820FA06F257
S214038C50154321FA06F0A1400D43002175F10042A9
S214038C6050F1000051EB0C01F0BD00205FEA0C014F
S214038C70F0BDCFB992185B41B3FA83F704BFB2FADB
S214038C8082F6BF190B3FB7F120062FBF02FA06F391
S214038C90BB40C7F1200622FA06F638BF3343BA4074
S214038CA01CB1E419641E33E77F4231F00041B1FA88
S214038CB081F404BFB0FA80F6A4190B3CB4F1200685
S214038CC02FBF00FA06F1A140C4F1200620FA06F6EB
